:060000000A128A1110280B
:10000800FE00030EF4000A08F500831203137F08AC
:10001800F6000A128A1123280A128A111328F701F6
:10002800F801F901FA01FB01FC0183120313A00195
:10003800A101A201A30183010A128A1124290C1F1C
:10004800262827284B281F0CF000700C0F39023A7D
:10005800031D2F28302848281E08F000F1017008D9
:10006800FB007108FC007C08803AFF0080307F02AA
:10007800031D4028FB307B02031C432844284828E2
:10008800FA30FB000030FC00831203130C130B1D25
:100098004E284F28D7280A128A1142210A128A119B
:1000A8007A08803AFF0080307F02031D5D28FA300D
:1000B80079020318602861286B2883120313061439
:1000C8000130F9070318FA0A0030FA07D728831213
:1000D80003132308803AF0007C08803A7002031D5D
:1000E80077287B08220203187A287B288528831220
:1000F800031306140130A2070318A30A0030A3074C
:10010800D728FA30F0007B087002F1007C09031848
:10011800013EF200831203132108803AF3007208AB
:10012800803A7302031D9A287108200203189D283B
:100138009E28A8288312031306100130A00703186D
:10014800A10A0030A107D7287808803AFF0091302B
:100158007F02031DB128943077020318B428B5280C
:10016800BF288312031306100130F7070318F80A93
:100178000030F807D7287808803AFF0091307F02CE
:10018800031DC82894307702031CCB28CC28D72815
:10019800F901FA0183120313A201A301A001A1012D
:1001A800F701F801D728760883120313FF007508B2
:1001B8008A00740E8300FE0E7E0E09000730831637
:1001C8000317880089010730831603138500860109
:1001D8008701880189018312031388018601870139
:1001E80089017030831603138F040F1481120112D2
:1001F8008115011181100110F83083120313810059
:10020800831603139F131F129F12831203131F08D1
:100218003F3980389F00C3309F051F1484308312F4
:100228000313A400A40B162900000B118B168B17BF
:10023800831203130C13831603130C170B170800F0
:100248000A128A11E2200A128A11831203139F14D8
:100258009F182F2930292C291F0CA500250C0F3990
:10026800003A031D382939293D291F08C3390838A0
:100278009F009F142C290A128A1110280B11F8309C
:0802880083120313810008003A
:04400E00D420FF3F7C
:00000001FF
