:060000000A128A1110280B
:10000800FE00030EF3000A08F400831203137F08AE
:10001800F5000A128A112C280A128A1113280A12CA
:100028008A1122220A128A11F9000A128A1123223D
:100038000A128A11FA00A001A101A201A301A401D8
:10004800A501F601F701F80183010A128A11DC29DA
:100058000C1F2F2830284D291F0CF000700C0F3969
:10006800013A031D382839285E281E08F0000310BD
:10007800700C763E9B001E080139F000F00EF00D62
:100088001D087006DF3970069D00831603131E08CD
:10009800F00007300310F00CFF3E031D4E287008D7
:1000A800F100F10E831203131D087106EF39710672
:1000B8009D004A291F0CF000700C0F39003A031DEF
:1000C8006628672839291E08F0000310700C7C3E4A
:1000D800F100003003180130F2007108F6007208D0
:1000E800F7007708803AFF0080307F02031D7E28E2
:1000F800C9307602031C81288228BE287908013E6F
:10010800F9007A080318013E003EFA007A08803A9E
:10011800FF0081307F02031D932800307902031C01
:10012800962897289B28FF30F9000030FA007908B4
:100138008312031395001E080139F000F00EF00D2C
:1001480017087006DF3970069700831603131E0818
:10015800F00007300310F00CFF3E031DAE287008B6
:10016800F100F10E8312031317087106EF397106B7
:1001780097004A297708803AFF0080307F02031DE4
:10018800C728463076020318CA28CB28FC287908E5
:10019800FF3EF9007A080318013EFF3EFA00FA1FF5
:1001A800D628D728D928F901FA0179088312031328
:1001B80095001E080139F000F00EF00D17087006C2
:1001C800DF3970069700831603131E08F000073006
:1001D8000310F00CFF3E031DEC287008F100F10E2F
:1001E8008312031317087106EF39710697004A291D
:1001F8007708803AFF0080307F02031D0529C83048
:1002080076020318082909294A297708803AFF0045
:1002180080307F02031D122947307602031C1529FE
:1002280016294A2979088312031395001E080139F3
:10023800F000F00EF00D17087006DF397006970011
:10024800831603131E08F00007300310F00CFF3E5E
:10025800031D29297008F100F10E831203131708F2
:100268007106EF39710697004A291F0CF000700CCF
:100278000F39023A031D412942294A291E08F00074
:10028800F1017008A4007108A5004A29831203131C
:100298000C130B1D502951296E290A128A111C2290
:1002A8000A128A110130F0007008F807831203134C
:1002B8002508803A803C031D632924087802031C22
:1002C800662967296B298312031387116E29831204
:1002D800031387157508FF0074088A00730E8300DE
:1002E800FE0E7E0E09000730831603178800890169
:1002F800073083160313850087018801890183125B
:1003080003138801870189017030831603138F0452
:100318000F148112011281150111811001109C30F6
:10032800831203138100831603139F131F129F1256
:10033800831203131F083F3980389F00C3309F057D
:100348001F14843083120313A600A60BA9290000EA
:100358000B118B168B17831203130C1383160313BD
:100368000C170B1707158714FF3092003F308312C4
:10037800031397051708F0390C3897001D08F03952
:100388000C389D000F3095000F309B001D129D12F8
:10039800CF3097058C100330920412158C1CD52988
:1003A800D629D2298C108316031307118710080049
:1003B8000A128A1177210A128A11831203139F14D1
:1003C8009F18E729E829E4291F0CA700270C0F39F3
:1003D800023A031DF029F129FD291F08C339043801
:1003E8009F00203083120313A700A70BF9290000F0
:1003F8000E2A1F0CA700270C0F39013A031D052AE6
:10040800062A092AC3309F05F5291F08C339083869
:100418009F00F529203083120313A700A70B122A87
:100428000000831203139F14E4290A128A1110286A
:100438000B119C30831203138100080087340034A9
:04400E00D420FF3F7C
:00000001FF
