:060000000A128A1110280B
:10000800FE00030EFB000A08FC00831203137F089E
:10001800FD000A128A1124280A128A111328F001F5
:10002800F101F201F301F401F501F6018312031362
:10003800A001A101A201A30183010A128A11732957
:100048000C1F2728282895281F0CF700770C0F3934
:10005800013A031D3028312856281E08F7000310DE
:10006800770C763E9B001E080139F700F70EF70D56
:100078001D087706DF3977069D00831603131E08CF
:10008800F70007300310F70CFF3E031D46287708DA
:10009800F800F80E831203131D087806EF39780666
:1000A8009D0094281F0CF700770C0F39003A031DA8
:1000B8005E285F2884281E08F7000310770C7C3E12
:1000C80095001E080139F700F70EF70D1708770697
:1000D800DF3977069700831603131E08F7000730E9
:1000E8000310F70CFF3E031D74287708F800F80E7C
:1000F8008312031317087806EF39780697009428B7
:100108001F0CF700770C0F39023A031D8C288D2835
:1001180094281E08F700F8017708F4007808F5001D
:100128000C130B1D9828992803290A128A11B32148
:100138000A128A117308803AFF0080307F02031D7B
:10014800A728FA3072020318AA28AB28B528831208
:10015800031307140130F2070318F30A0030F307FA
:1001680003297508803AF7007108803A7702031D61
:10017800BF2870087402031CC228C328CD28831224
:10018800031307140130F0070318F10A0030F107D0
:100198000329FA30F70074087702F8007509031884
:1001A800013EF900831203132308803AFA00790804
:1001B800803A7A02031DE228780822020318E5280B
:1001C800E628F0288312031307100130A20703184A
:1001D800A30A0030A3070329831203132108803AD6
:1001E800FF0091307F02031DFB2893302002031883
:1001F800FE28FF28032983120313071003297D080B
:1002080083120313FF007C088A007B0E8300FE0E16
:100218007E0E09000730831603178800890107300E
:10022800831603138500870188018901831203134C
:100238008801870189017030831603138F040F1416
:10024800811201128115011181100110F8308312F9
:1002580003138100831603139F131F129F12831227
:1002680003131F083F3980389F00C3309F051F14B0
:10027800843083120313A400A40B402900000B113F
:100288008B168B17831203130C13831603130C1787
:100298000B1707158714FF3092003F3083120313A2
:1002A80097051708F0390C3897001D08F0390C38F5
:1002B8009D000F3095000F309B001D129D12CF300E
:1002C80097058C100330920412158C1C6C296D292B
:1002D80069298C10831603130711871008000A1266
:1002E8008A110E210A128A11831203139F149F1870
:1002F8007E297F297B291F0CA500250C0F39023A7E
:10030800031D8729882994291F08C33904389F00A9
:10031800203083120313A500A50B90290000A529FE
:100328001F0CA500250C0F39013A031D9C299D2996
:10033800A029C3309F058C291F08C33908389F009E
:100348008C29203083120313A500A50BA9290000CE
:10035800831203139F147B290A128A1110280B1188
:0A036800F83083120313810008002F
:04400E00D420FF3F7C
:00000001FF
