:060000000A128A1110280B
:10000800FE00030EFB000A08FC00831203137F089E
:10001800FD000A128A1124280A128A111328F001F5
:10002800F101F201F301F401F501F6018312031362
:10003800A001A101A201A30183010A128A11A52925
:100048000C1F27282828A9281F0CF700770C0F3920
:10005800013A031D3028312856281E08F7000310DE
:10006800770C7C3E9B001E080139F700F70EF70D50
:100078001D087706DF3977069D00831603131E08CF
:10008800F70007300310F70CFF3E031D46287708DA
:10009800F800F80E831203131D087806EF39780666
:1000A8009D00A6281F0CF700770C0F39003A031D96
:1000B8005E285F2884281E08F7000310770C7C3E12
:1000C80095001E080139F700F70EF70D1708770697
:1000D800DF3977069700831603131E08F7000730E9
:1000E8000310F70CFF3E031D74287708F800F80E7C
:1000F8008312031317087806EF3978069700A628A5
:100108001F0CF700770C0F39023A031D8C288D2835
:10011800A6281E08F700F8017708F4007808F5000B
:100128007508803AFF0080307F02031D9D28FB3050
:100138007402031CA028A128A628FA30F400003075
:10014800F500A628831203130C130B1DAC28AD2849
:1001580035290A128A11E5210A128A117308803A90
:10016800FF0080307F02031DBB28FA30720203189B
:10017800BE28BF28C9288312031307140130F207C9
:100188000318F30A0030F30735297508803AF70099
:10019800831203132308803A7702031DD528220807
:1001A8007402031CD828D928E328831203130714E0
:1001B8000130A2070318A30A0030A3073529FA3033
:1001C800F70074087702F80075090318013EF90072
:1001D800831203132108803AFA007908803A7A02D8
:1001E800031DF828780820020318FB28FC28062994
:1001F8008312031307100130A0070318A10A003067
:10020800A10735297108803AFF0091307F02031D4C
:100218000F29933070020318122913291D298312FC
:10022800031307100130F0070318F10A0030F10733
:1002380035297108803AFF0091307F02031D262975
:1002480094307002031C29292A293529F201F30167
:1002580083120313A201A301A001A101F001F1017E
:1002680035297D0883120313FF007C088A007B0E62
:100278008300FE0E7E0E09000730831603178800E0
:1002880089010730831603138500870188018901D6
:1002980083120313880187018901703083160313C1
:1002A8008F040F14811201128115011181100110A0
:1002B800F830831203138100831603139F131F1250
:1002C8009F12831203131F083F3980389F00C330E1
:1002D8009F051F14843083120313A400A40B7229F2
:1002E80000000B118B168B17831203130C13831644
:1002F80003130C170B1707158714FF3092003F30B4
:100308008312031397051708F0390C3897001D0856
:10031800F0390C389D000F3095000F309B001D12EE
:100328009D12CF3097058C100330920412158C1C47
:100338009E299F299B298C10831603130711871068
:1003480008000A128A1140210A128A118312031323
:100358009F149F18B029B129AD291F0CA500250CA1
:100368000F39023A031DB929BA29C6291F08C3390A
:1003780004389F00203083120313A500A50BC2295F
:100388000000D7291F0CA500250C0F39013A031DC1
:10039800CE29CF29D229C3309F05BE291F08C339CA
:1003A80008389F00BE29203083120313A500A50B2F
:1003B800DB290000831203139F14AD290A128A1146
:0E03C80010280B11F830831203138100080077
:04400E00D420FF3F7C
:00000001FF
