:060000000A128A110C280F
:10000800FE00030EF9000A08FA000A128A117C2879
:100018000A128A110F28F001F101F201F301F4012B
:10002800F501F601F70183120313A001A101830171
:100038000A128A115E28073083160317880089017F
:10004800073083160313850086018701880189011B
:100058008312031388018601870189017030831692
:1000680003138F040F1481120112811501118110DD
:100078000110F830831203138100831603139F13B2
:100088001F129F12831203131F083F3980389F00E5
:10009800C3309F051F148530FB00FB0B51280B1143
:1000A8008B168B17831203130C13831603130C1769
:1000B8000B1708000A128A111F200A128A118312CC
:1000C80003139F149F1869286A2866281F0CFC00D0
:1000D8007C0C0F39003A031D7228732877281F08F3
:1000E800C33908389F009F1466280A128A110C2801
:1000F800831203130C1F812882288E281F0CF800F6
:10010800780C0F39023A031D8A288B288D281E087F
:1001180087000C137A088A00790E8300FE0E7E0E83
:020128000900CC
:04400E00D420FF3F7C
:00000001FF
