:060000000A128A1110280B
:10000800FE00030EF4000A08F500831203137F08AC
:10001800F6000A128A112C280A128A1113280A12C9
:100028008A11E7210A128A11FC000A128A11E821B2
:100038000A128A11FD00A001A101A201A301F70182
:10004800F801F901FA01FB0183010A128A11A129B9
:100058000C1F2F28302814291F0CF000700C0F39A2
:10006800013A031D382839285E281E08F0000310BD
:10007800700C763E9B001E080139F000F00EF00D62
:100088001D087006DF3970069D00831603131E08CD
:10009800F00007300310F00CFF3E031D4E287008D7
:1000A800F100F10E831203131D087106EF39710672
:1000B8009D0011291F0CF000700C0F39003A031D28
:1000C8006628672800291E08F000F1010310F00DCA
:1000D800F10D70087C3EF20071080318013E003EE5
:1000E800F3007208F9007308FA007A08803AFF00F2
:1000F80080307F02031D8228C9307902031C8528BD
:100108008628C2287C080A3EFC007D080318013EA8
:10011800003EFD007D08803AFF0081307F02031D0C
:10012800972800307C02031C9A289B289F28FF30C0
:10013800FC000030FD0079088312031395001E08A7
:100148000139F000F00EF00D17087006DF3970065F
:100158009700831603131E08F00007300310F00CF5
:10016800FF3E031DB2287008F100F10E831203133D
:1001780017087106EF397106970011297A08803A35
:10018800FF0080307F02031DCB2846307902031818
:10019800CE28CF2811297C08F63EFC007D080318DC
:1001A800013EFF3EFD00FD1FDA28DB28DD28FC01AB
:1001B800FD0179088312031395001E080139F00028
:1001C800F00EF00D17087006DF39700697008316D9
:1001D80003131E08F00007300310F00CFF3E031D48
:1001E800F0287008F100F10E831203131708710646
:1001F800EF397106970011291F0CF000700C0F39A8
:10020800023A031D0829092911291E08F000F101E5
:100218007008F7007108F8001129831203130C13F2
:100228000B1D1729182933290A128A11E1210A12EC
:100238008A110130F0007008FB077808803A803C8A
:10024800031D282977087B02031C2B292C29302918
:100258008312031387113329831203138715760832
:10026800FF0075088A00740E8300FE0E7E0E0900DA
:100278000730831603178800890107308316031394
:10028800850087018801890183120313880187018A
:1002980089017030831603138F040F148112011221
:1002A80081150111811001109C3083120313810004
:1002B800831603139F131F129F12831203131F0821
:1002C8003F3980389F00C3309F051F148430831244
:1002D8000313A400A40B6E2900000B118B168B17B7
:1002E800831203130C13831603130C170B1707152C
:1002F8008714FF3092003F308312031397051708C5
:10030800F0390C3897001D08F0390C389D000F3073
:1003180095000F309B001D129D12CF3097058C1051
:100328000330920412158C1C9A299B2997298C104A
:10033800831603130711871008000A128A113C213B
:100348000A128A11831203139F149F18AC29AD292E
:10035800A9291F0CA500250C0F39023A031DB52940
:10036800B629C2291F08C33904389F0020308312D8
:100378000313A500A50BBE290000D3291F0CA50057
:10038800250C0F39013A031DCA29CB29CE29C330C0
:100398009F05BA291F08C33908389F00BA29203099
:1003A80083120313A500A50BD7290000831203139A
:1003B8009F14A9290A128A1110280B119C30831244
:0A03C800031381000800873400349D
:04400E00D420FF3F7C
:00000001FF
