:060000000A128A110C280F
:10000800FE00030EF9000A08FA000A128A112028D5
:100018000A128A110F28F001F101F201F301F4012B
:10002800F501F60183120313A001A101A201A301A6
:1000380083010A128A110E29831203130C1F252823
:10004800262893281F0CF700770C0F39013A031D57
:100058002E282F2854281E08F7000310770C763E08
:100068009B001E080139F700F70EF70D1D087706EB
:10007800DF3977069D00831603131E08F700073043
:100088000310F70CFF3E031D44287708F800F80E0C
:10009800831203131D087806EF3978069D0092280D
:1000A8001F0CF700770C0F39003A031D5C285D28F8
:1000B80082281E08F7000310770C7C3E95001E0866
:1000C8000139F700F70EF70D17087706DF397706BD
:1000D8009700831603131E08F70007300310F70C68
:1000E800FF3E031D72287708F800F80E83120313E9
:1000F80017087806EF397806970092281F0CF70042
:10010800770C0F39023A031D8A288B2892281E087B
:10011800F700F8017708F4007808F5000C130B1DB8
:1001280096289728A5280A128A1148210A128A11A6
:100138000130F7007708F6079030F7007708F600E7
:10014800F6017A088A00790E8300FE0E7E0E0900F9
:1001580007308316031788008901073083160313B5
:1001680085008701880189018312031388018701AB
:1001780089017030831603138F040F148112011242
:100188008115011181100110F830831203138100C9
:10019800831603139F131F129F12831203131F0842
:1001A8003F3980389F00C3309F051F148530FB00FE
:1001B800FB0BDC280B118B168B17831203130C1304
:1001C800831603130C170B1707158714FF309200BB
:1001D8003F308312031397051708F0390C3897003E
:1001E8001D08F0390C389D000F3095000F309B002A
:1001F8001D129D12CF3097058C10033092041215F2
:100208008C1C0729082904298C108316031307114D
:10021800871008000A128A11AC200A128A11831268
:1002280003139F149F1819291A2916291F0CFC005B
:100238007C0C0F39023A031D222923292C291F0877
:10024800C33904389F002130FC00FC0B29293D29C3
:100258001F0CFC007C0C0F39013A031D3429352989
:100268003829C3309F0527291F08C33908389F003C
:1002780027292130FC00FC0B3F29831203139F140C
:1002880016290A128A110C280B11F830831203134D
:0402980081000800D9
:04400E00D420FF3F7C
:00000001FF
