:060000000A128A110C280F
:10000800FE00030EF2000A08F3000A128A111828EB
:100018000A128A110F28F601F701F801F901FA010D
:1000280083010A128A111129831203130C1F1D2838
:100038001E288B281F0CF000700C0F39013A031D85
:10004800262827284C281E08F0000310700C7C3E38
:100058009B001E080139F000F00EF00D1D08700617
:10006800DF3970069D00831603131E08F000073061
:100078000310F00CFF3E031D3C287008F100F10E40
:10008800831203131D087106EF3971069D008A2833
:100098001F0CF000700C0F39003A031D5428552826
:1000A8007A281E08F0000310700C7C3E95001E088C
:1000B8000139F000F00EF00D17087006DF397006F0
:1000C8009700831603131E08F00007300310F00C86
:1000D800FF3E031D6A287008F100F10E8312031316
:1000E80017087106EF39710697008A281F0CF0006F
:1000F800700C0F39023A031D822883288A281E08AB
:10010800F000F1017008F8007108F9000C130B1DDC
:100118008E288F28A5280A128A114D210A128A11C1
:1001280083120313871D99289A28A0280E30F600F9
:100138000030F7008711A528F130F6000030F700ED
:10014800871573088A00720E8300FE0E7E0E090062
:1001580007308316031788008901073083160313B5
:1001680085008701880189018312031388018701AB
:100178008901831603130F088F3960388F000F1415
:100188008112011281110115811001147608831260
:1001980003138100831603139F131F129F128312E8
:1001A80003131F083F3980389F00C3309F051F1471
:1001B8004230F400F40BDE2800000B118B168B176D
:1001C800831203130C13831603130C170B1707154D
:1001D8008714FF3092003F308312031397051708E6
:1001E800F0390C3897001D08F0390C389D000F3095
:1001F80095000F309B001D129D12CF3097058C1073
:100208000330920412158C1C0A290B2907298C101B
:10021800831603130711871008000A128A11AC20ED
:100228000A128A11831203139F149F181C291D296F
:1002380019291F0CF500750C0F39023A031D2529E1
:10024800262930291F08C33904389F001030F500CB
:10025800F50B2C29000041291F0CF500750C0F39EE
:10026800013A031D382939293C29C3309F052A2919
:100278001F08C33908389F002A291030F500F50BEC
:1002880043290000831203139F1419290A128A11A3
:0E0298000C280B117608831203138100080056
:04400E00D420FF3F7C
:00000001FF
