:060000000A128A110C280F
:10000800FE00030EF2000A08F3000A128A111628ED
:100018000A128A110F28F601F701F80183010A1262
:100028008A110C29831203130C1F1B281C288928EA
:100038001F0CF000700C0F39013A031D24282528E5
:100048004A281E08F0000310700C763E9B001E081C
:100058000139F000F00EF00D1D087006DF3970064A
:100068009D00831603131E08F00007300310F00CE0
:10007800FF3E031D3A287008F100F10E83120313A6
:100088001D087106EF3971069D0088281F0CF000C5
:10009800700C0F39003A031D5228532878281E087F
:1000A800F0000310700C7C3E95001E080139F0002A
:1000B800F00EF00D17087006DF39700697008316EA
:1000C80003131E08F00007300310F00CFF3E031D59
:1000D80068287008F100F10E8312031317087106DF
:1000E800EF397106970088281F0CF000700C0F3943
:1000F800023A031D8028812888281E08F000F10193
:100108007008F6007108F7000C130B1D8C288D2859
:10011800A3280A128A1146210A128A110130F00016
:100128007008F80702307806031D9B289C28A02831
:10013800831203138715A3288312031387117308E7
:100148008A00720E8300FE0E7E0E090007308316A9
:100158000317880089010730831603138500870178
:10016800880189018312031388018701890170308E
:10017800831603138F040F148112011281110115C4
:1001880081140110F03083120313810083160313C6
:100198009F131F129F12831203131F083F398038C1
:1001A8009F00C3309F051F148530F400F40BDA2834
:1001B8000B118B168B17831203130C13831603135F
:1001C8000C170B1707158714FF3092003F30831266
:1001D800031397051708F0390C3897001D08F039F4
:1001E8000C389D000F3095000F309B001D129D129A
:1001F800CF3097058C100330920412158C1C0529FA
:10020800062902298C10831603130711871008008A
:100218000A128A11AA200A128A11831203139F1440
:100228009F181729182914291F0CF500750C0F3968
:10023800023A031D202921292A291F08C339043815
:100248009F002130F500F50B27293B291F0CF500ED
:10025800750C0F39013A031D322933293629C33069
:100268009F0525291F08C33908389F0025292130F3
:10027800F500F50B3D29831203139F1414290A1264
:100288008A110C280B11F030831203138100080027
:04400E00D420FF3F7C
:00000001FF
