:060000000A128A110C280F
:10000800FE00030EF2000A08F3000A128A111628ED
:100018000A128A110F28F601F701F80183010A1262
:100028008A111129831203130C1F1B281C288928E5
:100038001F0CF000700C0F39013A031D24282528E5
:100048004A281E08F0000310700C763E9B001E081C
:100058000139F000F00EF00D1D087006DF3970064A
:100068009D00831603131E08F00007300310F00CE0
:10007800FF3E031D3A287008F100F10E83120313A6
:100088001D087106EF3971069D0088281F0CF000C5
:10009800700C0F39003A031D5228532878281E087F
:1000A800F0000310700C7C3E95001E080139F0002A
:1000B800F00EF00D17087006DF39700697008316EA
:1000C80003131E08F00007300310F00CFF3E031D59
:1000D80068287008F100F10E8312031317087106DF
:1000E800EF397106970088281F0CF000700C0F3943
:1000F800023A031D8028812888281E08F000F10193
:100108007008F6007108F7000C130B1D8C288D2859
:10011800A8280A128A114B210A128A110130F0000C
:100128007008F8077708803A803C031D9D287608F8
:100138007802031CA028A128A5288312031387117D
:10014800A82883120313871573088A00720E830088
:10015800FE0E7E0E090007308316031788008901FA
:1001680007308316031385008701880189018312EC
:1001780003138801870189017030831603138F04E4
:100188000F148112011281150111811001109C3088
:10019800831203138100831603139F131F129F12E8
:1001A800831203131F083F3980389F00C3309F050F
:1001B8001F148530F400F40BDF280B118B168B17F6
:1001C800831203130C13831603130C170B1707154D
:1001D8008714FF3092003F308312031397051708E6
:1001E800F0390C3897001D08F0390C389D000F3095
:1001F80095000F309B001D129D12CF3097058C1073
:100208000330920412158C1C0A290B2907298C101B
:10021800831603130711871008000A128A11AF20EA
:100228000A128A11831203139F149F181C291D296F
:1002380019291F0CF500750C0F39023A031D2529E1
:1002480026292F291F08C33904389F002130F500BB
:10025800F50B2C2940291F0CF500750C0F39013AB4
:10026800031D372938293B29C3309F052A291F0830
:10027800C33908389F002A292130F500F50B422997
:10028800831203139F1419290A128A110C280B11BF
:0A0298009C3083120313810008005C
:04400E00D420FF3F7C
:00000001FF
