:060000000A128A110C280F
:10000800FE00030EF2000A08F3000A128A111628ED
:100018000A128A110F28F601F701F80183010A1262
:100028008A110F29831203130C1F1B281C288828E8
:100038001F0CF000700C0F39013A031D24282528E5
:100048004A281E08F0000310700C763E9B001E081C
:100058000139F000F00EF00D1D087006DF3970064A
:100068009D00831603131E08F00007300310F00CE0
:10007800FF3E031D3A287008F100F10E83120313A6
:100088001D087106EF3971069D0087281F0CF000C6
:10009800700C0F39003A031D5228532877281E0880
:1000A800F0000310700C95001E080139F000F00EE6
:1000B800F00D17087006DF397006970083160313D2
:1000C8001E08F00007300310F00CFF3E031D6728E0
:1000D8007008F100F10E8312031317087106EF3947
:1000E8007106970087281F0CF000700C0F39023A30
:1000F800031D7F28802887281E08F000F10170085A
:10010800F6007108F7000C130B1D8B288C28A72804
:100118000A128A1149210A128A110130F000700866
:10012800F8077708803A803C031D9C2876087802F7
:10013800031C9F28A028A428831203138711A7282B
:1001480083120313871573088A00720E8300FE0E4C
:100158007E0E0900073083160317880089010730CF
:10016800831603138500870188018901831203130D
:100178008801870189017030831603138F040F14D7
:100188008112011281150111811001109C30831216
:1001980003138100831603139F131F129F128312E8
:1001A80003131F083F3980389F00C3309F051F1471
:1001B8008530F400F40BDE280B118B168B17831295
:1001C80003130C13831603130C170B170715871447
:1001D800FF3092003F308312031397051708F03958
:1001E8000C3897001D08F0390C389D0095010F3028
:1001F8009B001D129D12CF3097058C10033092047E
:1002080012158C1C0829092905298C10831603133B
:100218000711871008000A128A11AE200A128A11E3
:10022800831203139F149F181A291B2917291F0CBF
:10023800F500750C0F39023A031D232924292D29AD
:100248001F08C33904389F002130F500F50B2A290F
:100258003E291F0CF500750C0F39013A031D35298D
:1002680036293929C3309F0528291F08C33908387A
:100278009F0028292130F500F50B4029831203132C
:100288009F1417290A128A110C280B119C3083120B
:06029800031381000800C1
:04400E00D420FF3F7C
:00000001FF
